:100000000C94B1010C94D9010C94D9010C94D90130
:100010000C94D9010C94D9010C94D9010C94D901F8
:100020000C94D9010C94D9010C94D9010C94D901E8
:100030000C94D9010C94D9010C94D9010C94D901D8
:100040000C94F70E0C94D9010C94D9010C94D9019D
:100050000C94D9010C94D9010C94D9010C94D901B8
:100060000C94410F0C94D90105A84CCDB2D44EB9D3
:100070003836A9020C50B9918688083CA6AAAA2A4B
:10008000BE000000803F0000000023002600290081
:1000900000000000240027002A00000000002500C6
:1000A00028002B00040404040404040402020202D5
:1000B000020203030303030301020408102040802B
:1000C00001020408102001020408102000000008AA
:1000D000000201000003040700000000000000000F
:1000E0000000000000000000000000000000000010
:1000F0000000803F000000000000803F0000803FC3
:1001000000000000000000000000000000000000EF
:100110000000803F0000803F000000000000803FA2
:1001200000000000000000000000803F0000000010
:10013000000000000000803F0000803F0000000041
:100140000000803F0000803F0000803F0000803FB3
:1001500000000000000000000000803F0000803F21
:100160000000803F0000803F000000000000803F52
:100170000000803F000000000000803F0000803F42
:100180000000803F0000803F000000000000803F32
:100190000000803F0000803F000000000000803F22
:1001A000000000000000803F0000803F00000000D1
:1001B000000000000000803F000000000000000080
:1001C0000000803F000000000000803F0000803FF2
:1001D000000000000000803F000000000000000060
:1001E000000000000000803F000000000000803F91
:1001F00000000000000000000000000000000000FF
:10020000000000000000803F00000000000000002F
:100210000000803F0000803F0000803F0000803FE2
:100220000000803F000000000000803F0000000050
:100230000000803F0000803F0000803F0000803FC2
:100240000000803F000000000000803F0000000030
:100250000000803F00000000000000000000803F20
:100260000000000000000000000000000000803FCF
:10027000000000000000803F0000000000000000BF
:10028000000000000000803F0000000000000000AF
:10029000120003020303020504050900FF08FE081B
:1002A000FE0000000000B2200580D8012A0AADD16E
:1002B00091259541690B2B0AADD115468314460053
:1002C0002C07DBCFA394002D068DD331082E08DB3D
:1002D000CF932C09002F08BDD059EB1802300BBD6D
:1002E000D09525355B528B00310ABDD0954949D850
:1002F0003408320BBDD0B364612465E120330BBDFB
:10030000D0318859A66AC902340CBDD09749492911
:1003100019B43001350BBDD0714C4CA1962C003670
:100320000BBDD025656162D29205370BBDD03188F7
:100330005998153300380CBDD0B3645AB2645AB220
:1003400000390CBDD0B36492A2845924013A0AFB4F
:10035000CF932C69B2240000000004FFFF000000CE
:10036000601011241FBECFEFD8E0DEBFCDBF11E07B
:10037000A0E0B1E0EAE3F1E302C005900D92AA38F3
:10038000B107D9F727E0AAE8B1E001C01D92A13F6B
:10039000B207E1F711E0C1EBD1E004C02197FE0103
:1003A0000E947F18C03BD107C9F70E9413110C941B
:1003B0009B180C940000662329F06A3019F0862FF0
:1003C00090E008958FEF9FEF0895CF92DF92EF9224
:1003D000FF920F931F93CF93DF93EC01842F8770CD
:1003E000E1E0F0E0082E01C0EE0F0A94EAF73E2F9C
:1003F0007E0199E7E90EF11CD7019C9110E0923043
:1004000018F41E2F913029F150E0487FE8ADF9AD86
:10041000C880D980D60150969C91949F6001959F89
:10042000D00C11246C0D7D2D711DDF01A60FB71F9F
:10043000011115C08C91812B83278D932150D1F709
:10044000DF91CF911F910F91FF90EF90DF90CF90B0
:10045000089530E0D9CF110F330F222389F39C91F7
:10046000912B93279C938F5F877021508111F3CF3D
:100470009CADA90FB11DF7019081923028F4913005
:1004800009F031E011E0E9CF31E0E7CF80E00895F5
:1004900080E00895CF93DF93CEE6D7E08FAFEAAD4B
:1004A000FBAD0190F081E02D82E797E00995EAAD80
:1004B000FBAD0280F381E02D82E797E0DF91CF91E1
:1004C00009949B01DC011896ED91FC9141E067E1F4
:1004D0000994833081F028F4813099F08230A9F0BA
:1004E00008958730A9F08830C9F08430B1F4809144
:1004F00080008F7D03C0809180008F778093800083
:10050000089584B58F7784BD089584B58F7DFBCF22
:100510008091B0008F778093B00008958091B000F3
:100520008F7DF9CF1F93CF93DF93282F30E0F90110
:10053000E453FF4F8491F901E854FF4FD491F9013E
:10054000EC55FF4FC491CC23A9F0162F81110E94C6
:100550006902EC2FF0E0EE0FFF1FE656FF4FA5916A
:10056000B4918FB7F894EC91111108C0D095DE23A7
:10057000DC938FBFDF91CF911F910895DE2BF8CFD1
:10058000CF93DF9390E0FC01E854FF4F24918C550A
:100590009F4FFC0184918823D1F090E0880F991F30
:1005A000FC01E057FF4FA591B491FC01E656FF4FC7
:1005B000C591D491623071F49FB7F8943C91822F29
:1005C000809583238C93E8812E2B28839FBFDF9116
:1005D000CF9108958FB7F894EC912E2B2C938FBF69
:1005E000F6CF3FB7F89480916A0290916B02A09188
:1005F0006C02B0916D0226B5A89B05C02F3F19F083
:100600000196A11DB11D3FBFBA2FA92F982F882792
:10061000BC01CD01620F711D811D911D42E0660F6D
:10062000771F881F991F4A95D1F7089520911D02C1
:10063000260F3327331F21323105ECF4209143027A
:10064000FC0190E080E0243069F082E00895A09100
:100650001D022191AC0145505E4FA40FB52FB11D75
:100660002C930196861798F380911D02680F609372
:100670001D0280E0089581E008951092430281E018
:10068000809345021092440261E082E10E9492024E
:1006900061E083E10E949202E9EBF0E080818E7FCD
:1006A000808380818D7F808388E48093B80085E497
:1006B0008093BC000895CF93DF9391E09093FA016B
:1006C0008823B9F0C091B800D091BA008091BC00E5
:1006D0008A7B8093BC0060E082E10E94920260E02D
:1006E00083E10E9492020E943D03D093BA00C0931E
:1006F000B800DF91CF910895089508950895E0918D
:10070000F2018091F101E81730F4F0E0EF52FE4F72
:10071000808190E008958FEF9FEF08959091F2010E
:100720008091F1012FEF3FEF981748F4E92FF0E0A7
:10073000EF52FE4F208130E09F5F9093F201C9019C
:1007400008958091F1019091F201891B990B089510
:10075000CF92DF92EF92FF920F931F93CF93DF938D
:100760007C01CB018A012091D001222389F0EB0189
:100770006B01C40ED51ECC15DD0569F06991D7015A
:10078000ED91FC910190F081E02DC7010995F3CF27
:10079000642F0E941603C801DF91CF911F910F9122
:1007A000FF90EF90DF90CF900895CF93DF931F924B
:1007B000CDB7DEB769832091D0012223F9F02091D3
:1007C000F301203258F021E030E0FC013383228332
:1007D00090E080E00F90DF91CF9108958091F40137
:1007E000E82FF0E0E055FE4F998190838F5F809372
:1007F000F4018093F30181E090E0ECCF61E0CE0161
:1008000001960E941603F7CFDC011A96ED91FC9138
:1008100030E020E00994DC011496ED91FC9130E089
:1008200020E040E060E10994DC011696ED91FC9136
:1008300030E020E040E069E10994DC011696ED919A
:10084000FC9130E020E040E068E109949A01DC018D
:100850001696ED91FC91462F67E10994EF92FF9275
:100860000F931F93CF93DF931F92CDB7DEB77C0119
:100870008B01D8016C91673129F150F46531A0F4F6
:100880000F90DF91CF911F910F91FF90EF900895FE
:100890006A3118F16E3FA1F7F8014181498369E29D
:1008A000C7010E9404040BC0F80141814983D701AC
:1008B0001696ED91FC9130E020E0C70109950E5F9E
:1008C0001F4FD7CFF80181818983AE014F5F5F4F02
:1008D00061E0C7010E942604F2CF0F5F1F4FD701CE
:1008E0001696ED91FC9130E020E040E0C7010995BB
:1008F000C0CF462FDC011696ED91FC9130E020E050
:1009000066E10994462FDC011696ED91FC9130E0EA
:1009100020E065E10994EF92FF920F931F93CF932C
:10092000DF93EC01042F79016D3009F446C050F4D7
:100930006B30C9F1693009F49FC06A3009F465C0B1
:1009400080E046C06E3009F452C06F3099F70E94C3
:100950001D04F7011381110F110F110F6C89160F70
:1009600060E4CE010E948204612F62956F70606125
:10097000CE010E948204612F6F70CE010E94790423
:10098000F7016481606BCE010E947904F701408118
:1009900051816281660F660F660FCE010E942604A8
:1009A0000150A1F72EC063E171E0442311F06EE025
:1009B00071E0CE010E942E040AC0411110C067E010
:1009C00071E00E942E04E881F98182898C8B81E09C
:1009D000DF91CF911F910F91FF90EF90089560E00C
:1009E00071E00E942E04E881F9818389EFCF0E9493
:1009F0001D0461E8CE010E948204602FCE010E9496
:100A00007904CE010E941404E2CFEA85FB8530E030
:100A100020E040E068E2CE010995EE81FF8130E000
:100A200020E040E064E1CE01099541E06BE4CE01B5
:100A30000E940404E881F981448169E2CE010E94A8
:100A4000040440E06BE4CE010E940404E881F981D3
:100A5000448169E2CE010E94040441E06BE4CE01CE
:100A60000E940404E881F981458169E2CE010E9477
:100A7000040468E171E09DCF8DE491E0998388835F
:100A80001C8AA5CFDC011896ED91FC9130E020E0A6
:100A900040E069E10994DC011896ED91FC9130E0A9
:100AA00020E040E068E10994CF93DF931F92CDB737
:100AB000DEB76983BE016F5F7F4F0E9461020F90B6
:100AC000DF91CF910895EF92FF921F93CF93DF9321
:100AD000EC01162F7A010E944B0560E4CE010E94C2
:100AE0005405E885F9859701412F67E1CE01099505
:100AF000CE01DF91CF911F91FF90EF900C944205B2
:100B0000EF92FF921F93CF93DF93EC01142F7901A3
:100B1000663181F138F4643109F44BC0653179F004
:100B200080E022C06831C9F150F16931C9F7809184
:100B3000AF01882391F1CE010E9442052EC0809121
:100B4000AF01882319F0CE010E944205CE010E9418
:100B50004B0560E0CE010E945405612FCE010E943A
:100B6000540581E08093AF01DF91CF911F91FF90F9
:100B7000EF900895642F0E94540581E0F5CF809195
:100B8000AF01882319F0CE010E944205A701193157
:100B900038F4612FCE010E9463051092AF01EDCFB2
:100BA00068E1CE010E946305185188E1E80EF11C4E
:100BB000EDCF8E898F3F11F488E78E8BE885F9851C
:100BC0009701412F64E1CE01DF91CF911F91FF90FA
:100BD000EF9009940F93DC01DE963C91DE97431B66
:100BE000D496ED91FC9109950F910895CF93DF93E1
:100BF000FC01A081B18182AD982F990F990F990FB7
:100C000095AF50969C915097903208F09FE1990FC4
:100C1000990F990F94AF23AD922F990F990F990FB8
:100C200096AF51963C915197682F620F7727771FA7
:100C30003617170614F4832F821B97AFEF01C05CA1
:100C4000DF4F880F880F880F890F8883219680EFE8
:100C5000888354968D919C915597813F910508F416
:100C60008883EE5BFF4F56968C918083DF91CF9106
:100C700008950F93FC01EB5BFF4F3081319650815B
:100C8000451730F4301738F0041728F080E013C00F
:100C90003017D0F3FBCFFC01ED5BFF4F30818C5B55
:100CA0009F4FFC018081681740F481E0321718F0F3
:100CB00081E0261758F70F9108953217C8F3E6CF51
:100CC0002F923F924F925F926F927F928F929F925C
:100CD000AF92BF92CF92DF92EF92FF920F931F934A
:100CE000CF93DF93EC014C0183E4880E911CF40157
:100CF0001082329720805E01F4E4AF0EB11CF50142
:100D000020823FAC6E01F5E4CF0ED11CF60130829B
:100D1000359740807E01F6E4EF0EF11CF70140822A
:100D2000349610813297608031967080329750806F
:100D3000012F262D472D652DCE010E943906CD5855
:100D4000DF4F811114C01882DF91CF911F910F9155
:100D5000FF90EF90DF90CF90BF90AF909F908F90DB
:100D60007F906F905F904F903F902F90089581E01B
:100D70008883552011F0F4015082621410F4F501BB
:100D80006082371410F4F60170821415E8F6F7014A
:100D90001083DACF0F93DC01802FFD01ED58FF4F58
:100DA00090819923E9F12223D9F1223020F00230F9
:100DB00079F56F5F621B082F0170FD0180FD32C065
:100DC000EB5BFF4F8081481758F1319680814817BF
:100DD00038F53297908131978081260F2617F0F4ED
:100DE0006917D8F42FEF290F8217D0F4681708F489
:100DF000682F291708F4922F961BD696ED91FC9137
:100E0000D7970480F581E02D292FCD01099508C0E1
:100E1000033089F64F5F421BCECF682F691720F34E
:100E20000F910895ED5BFF4F80816817C8F33196ED
:100E300080816817A8F73296908131978081240FBE
:100E4000241778F4491760F42FEF290F821740F721
:100E5000481708F4482F291708F4922F941BCDCF78
:100E6000482F4917E8F6F2CF0F939091B70769170B
:100E7000A0F09091B807691780F49091B507891791
:100E800060F09091B607891740F4462F682F00E074
:100E900021E082E797E00E94CA060F910895CF9261
:100EA000DF92EF92FF920F931F93CF93DF93C82FA0
:100EB000162FD42F082F041B481710F0042F081BDF
:100EC000211740F4F12EF21A0F15D8F0DC1790F12B
:100ED000D12C10C0F22EF11A0F1508F042C0802F4D
:100EE0000F2DF82E8D2FD22F282F8C2FC12F182F9A
:100EF000DD24D394E02EE694121718F1CC24CA9482
:100F000022C0802F0F2DF82E812F1D2FD82F8C2F30
:100F1000C22F282FEDCF612F8C2FDD2011F06C2FE9
:100F2000812F0E943407EF18E7FE02C01C0DE00E6F
:100F3000CF5F0CC0E02EE6948D2FDC2FC82F122F30
:100F4000D12CCC24C394DF3F09F4DEEFDC1718F773
:100F5000DF91CF911F910F91FF90EF90DF90CF9095
:100F60000895DC1708F0B4CFE02EE6948D2FDC2F27
:100F7000C82F122FD12CC2CF213039F020F02230CF
:100F800031F0840F0895860F0895841B0895861B01
:100F90000895213039F020F0223031F0861B089579
:100FA000840F0895860F0895841B08955F926F92B1
:100FB0007F928F929F92AF92BF92CF92DF92EF92E9
:100FC000FF920F931F93CF93DF935C01162F642E34
:100FD000EC01C15BDF4FDC80ED804C0189E7880EBE
:100FE000911CFE80FD18C12EF11608F4CF2C5B80F9
:100FF0000C85202F4E2D6D2D8A810E94BC07782EE6
:10100000202F4E2D6D2D852D0E94C907482F66205B
:1010100071F08A85F40180832C2D672DC5010E9413
:10102000CA061F1548F01F19E394D12CDACF898521
:101030008111F7CF8B85EECF1D0D1C83ED82DF91E3
:10104000CF911F910F91FF90EF90DF90CF90BF90C5
:10105000AF909F908F907F906F905F900895DC018C
:1010600018964C911897ED91FC911197249130E0CE
:10107000042E02C0359527950A94E2F7842F860F37
:10108000883068F031961196FC93EE93E49198E0E5
:10109000941B01C0EE0F9A95EAF72E2B88501896F4
:1010A0008C938FEF9FEF01C0880F6A95EAF78095C8
:1010B00082230895FC01E60FF11D849190E0982FA2
:1010C00088273196E4918E0F911D0895AF92BF92BB
:1010D000CF92DF92EF92FF920F931F93CF93DF9304
:1010E00000D000D01F92CDB7DEB78C01DC01DA96BC
:1010F000AC90DA97DB96EC90DB97ED91FC91B188A0
:10110000FE2CD12CC12CD801ED91FC911197808936
:10111000D8962D913C911C82FD828B83B8E08B9FE9
:10112000C00111248C9DA0018D9D500D9C9D500DE2
:101130001124240F351F3A832983D8011496ED9189
:10114000FC919E012F5F3F4F41E06FE0C801099580
:10115000F3948F2D8E198A1528F4BFEFCB1ADB0A72
:10116000FB1488F20F900F900F900F900F90DF916B
:10117000CF911F910F91FF90EF90DF90CF90BF9094
:10118000AF900895CF92DF92EF92FF920F931F934B
:10119000CF93DF93EC01962F683109F44BC0B9016E
:1011A000993130F49431C9F0973189F080E006C06C
:1011B000993109F461C09032C9F781E0DF91CF9194
:1011C0001F910F91FF90EF90DF90CF90089550E026
:1011D00082E693E00E94A803F0CF8C859D85AE85C2
:1011E000BF85892B8A2B8B2B71F4E881F981A5852A
:1011F000B0E020EA36E841E050E00E9474186C87C5
:101200007D878E879F871092F2011092F1011092D4
:10121000F4011092F3010E943D038CE793E0909358
:101220001C0280931B028DE793E090932002809331
:101230001F02C3CF2C853D854E855F8560E074E23B
:1012400084EF90E00E945218205131094109510960
:1012500056954795379527952093B8008E8990E04D
:101260009595879591E09093D0018093AE0110926F
:10127000F4011092F301A1CFD091F301D13208F023
:1012800093C0C091AE010E94F1026B017C0180917C
:101290004302811164C082E08093430281E0809325
:1012A00045028FEF8093420210926702D09366024C
:1012B000A0EBB1E0E6E4F2E080E0D8137CC010924D
:1012C000680280916802CC0FC82BC093680280919D
:1012D0004402813009F073C0109244020E94F1026E
:1012E0006B017C01809168028093BB008091F601C4
:1012F0009091F701A091F801B091F901892B8A2B07
:101300008B2B99F00E94F1020091F6011091F701E8
:101310002091F8013091F9016C197D098E099F091E
:101320000617170728073907D8F18091BC0083FDFD
:10133000D9CF85EC8093BC000E94F1026B017C0147
:10134000809143028230E9F1809142028F3F61F146
:1013500080914202803241F18091420225C0809109
:10136000F6019091F701A091F801B091F901892B54
:101370008A2B8B2B09F48BCF0E94F1020091F6018E
:101380001091F7012091F8013091F9016C197D0954
:101390008E099F09061717072807390708F077CF26
:1013A0008091F5010E945B031092F4011092F30109
:1013B0001092D00102CF9D9191938F5F7ECF85EEE9
:1013C000B9CF8091F6019091F701A091F801B09109
:1013D000F901892B8A2B8B2B09F4B2CF0E94F102E1
:1013E0000091F6011091F7012091F8013091F90177
:1013F0006C197D098E099F090617170728073907F9
:1014000008F09ECFCDCF8F929F92AF92BF92CF9296
:10141000DF92EF92FF921F93CF93DF93EC016C3238
:10142000B0F46A32E8F5683241F1693209F445C036
:1014300080E06034B0F16F73FE01E60FF11D868D20
:101440008F3F71F1603108F06EC0642F13C06D32B0
:1014500009F457C068F384EB860F823048F76F7346
:10146000C60FD11D8E8D41115AC061E00E94C0028D
:1014700060E08E8D0E94920213C07C012EE1E20E8C
:10148000F11CD0E0F70181917F018F3F31F061E0E5
:10149000D03108F062E00E94C002DF5FD63191F7E0
:1014A00081E0DF91CF911F91FF90EF90DF90CF907F
:1014B000BF90AF909F908F900895C42ED12CF12CA7
:1014C000E12C0E94F1024B015C01C114D104E10442
:1014D000F10431F30E94F102681979098A099B0924
:1014E000683E73408105910580F3F1E0CF1AD10881
:1014F000E108F10828EE820E23E0921EA11CB11C27
:10150000E4CF85E090E0433010F082E090E0880F77
:10151000991F880F991F05970197F1F7C1CF62E0D6
:101520000E94C002BDCF282F30E0F901E453FF4FE5
:101530008491F901E854FF4FF490F901EC55FF4F05
:101540001491112379F081110E946902E12FF0E0DA
:10155000EE0FFF1FEA57FF4FA591B491EC91FE22C9
:1015600081E009F480E0898F9BCF2F923F924F92C8
:101570005F926F927F928F929F92AF92BF92CF9223
:10158000DF92EF92FF920F931F93CF93DF93CDB72C
:10159000DEB72E970FB6F894DEBF0FBECDBF8C011D
:1015A0001B015E874D87DC0114968D909D90AD9058
:1015B000BC9017971896CD90DD90ED90FC901B97FE
:1015C000FA0120813181428153816D917D918D910C
:1015D0009C910E9494172B013C01AD85BE855096CD
:1015E0002D913D914D915C915397C501B4010E949D
:1015F00094179B01AC01C301B2010E94C9152B01D4
:101600003C01ED85FE8520A131A142A153A1C70176
:10161000B6010E9494179B01AC01C301B2010E9464
:10162000C915AD85BE85D0962D913D914D915C91AA
:10163000D3970E94C91569877A878B879C87F101A8
:101640006083718382839383D8018D919D910D90E6
:10165000BC91A02D89839A83AB83BC83ED85FE85E5
:101660002481358146815781BC01CD010E949417A8
:101670002B013C01AD85BE8554962D913D914D9138
:101680005C915797C501B4010E9494179B01AC016E
:10169000C301B2010E94C9154B015C01ED85FE85B5
:1016A00024A135A146A157A1C701B6010E949417F4
:1016B0009B01AC01C501B4010E94C915AD85BE8571
:1016C000D4962D913D914D915C91D7970E94C9156B
:1016D0002B013C01F1014482558266827782D80158
:1016E00014968D919D910D90BC91A02D8D839E831C
:1016F000AF83B887ED85FE8520853185428553858A
:1017000069817A818B819C810E9494174B015C01D5
:10171000AD85BE8558962D913D914D915C915B971D
:101720006D817E818F8198850E9494179B01AC0109
:10173000C501B4010E94C9154B015C01ED85FE8510
:1017400020A531A542A553A5C701B6010E94941753
:101750009B01AC01C501B4010E94C915AD85BE85D0
:10176000D8962D913D914D915C91DB970E94C915C2
:101770006B017C01F101C086D186E286F386AD85DE
:10178000BE851C962D913D914D915C911F9769816D
:101790007A818B819C810E9494174B015C01ED85BD
:1017A000FE85248D358D468D578D6D817E818F818F
:1017B00098850E9494179B01AC01C501B4010E9459
:1017C000C9154B015C01AD85BE859C962D913D915F
:1017D0004D915C919F97F801608571858285938515
:1017E0000E9494179B01AC01C501B4010E94C91568
:1017F000AD85BE85DC962D913D914D915C91DF9735
:101800000E94C9154B015C0120E030E0A9010E9453
:101810003516882329F1A501940169857A858B8580
:101820009C850E943F16F1016083718382839383BC
:10183000A5019401C301B2010E943F16D101149683
:101840006D937D938D939C931797A5019401C70188
:10185000B6010E943F16F1016087718782879387E6
:101860002E960FB6F894DEBF0FBECDBFDF91CF919D
:101870001F910F91FF90EF90DF90CF90BF90AF90AE
:101880009F908F907F906F905F904F903F902F90A0
:101890000895CF92DF92EF92FF920F931F93CF9311
:1018A000DF936C01EB017B01E40EF51E10E000E01C
:1018B000CE15DF0561F06991D601ED91FC910190A3
:1018C000F081E02DC6010995080F191FF1CFC8015D
:1018D000DF91CF911F910F91FF90EF90DF90CF900C
:1018E00008952F923F924F925F926F927F928F92C4
:1018F0009F92AF92BF92CF92DF92EF92FF920F939F
:101900001F93CF93DF9300D000D000D0CDB7DEB7C8
:101910007C016C0124E0C20ED11CFC01E158FF4F98
:101920000190F081E02DC60109958C018E3F9F4FFB
:1019300008F05BC0370182E8680E711CF301F0818A
:10194000FB83470121E8820E911CF401F081FD83A5
:101950009701215A3F4F3A832983F90180818130D1
:1019600009F46AC008F45CC0823009F471C08330A5
:1019700009F47AC0F701EB5AFF4F2D81208331968D
:101980003B81308337978081918147969C838B83FD
:101990000F3F110511F008F015C1B496013611057D
:1019A00030F40134110558F0F701EF58FF4F8081F2
:1019B00091812B813C81280F391F3C832B838B81A4
:1019C0009C810196FC01249121115AC0412CE9818E
:1019D000FA818081813009F492C108F48BC1823090
:1019E00009F48FC1833009F491C181E090E026961B
:1019F0000FB6F894DEBF0FBECDBFDF91CF911F9120
:101A00000F91FF90EF90DF90CF90BF90AF909F909D
:101A10008F907F906F905F904F903F902F900895A0
:101A2000F701EF5AFF4F0190F081E02DC6010995B3
:101A3000FB81F80FFB839ECFF701EF5AFF4F019018
:101A4000F081E02DC60109952D81281B2D8392CFB1
:101A5000F701EF5AFF4F0190F081E02DC601099583
:101A60003B81381B3B8386CFF701EF5AFF4F019034
:101A7000F081E02DC60109959D81980F9D837ACF55
:101A8000EB81FC8124912017110609F094C0CF014D
:101A90000296009709F49ACFF701ED5AFF4FFE83A3
:101AA000ED83918380831086719660818D819E8104
:101AB0000E942F08ED81FE818683F701EB59FF4FCD
:101AC00060818D819E810E942F08582EED81FE81BC
:101AD0008783970123583F4F3C832B83F9019081E3
:101AE000ED81FE81928781E0911180E0ED81FE81A0
:101AF0008387F701EA59FF4FB0806B2D8D819E815E
:101B00000E942F08382EF701E959FF4F2080622DDF
:101B10008D819E810E942F08182FF701E859FF4FF1
:101B20000081602F8D819E810E942F08015021E04D
:101B300030E0A90101C0440F0A95EAF7482E441A83
:101B4000ED81FE81068110160CF041CFBA94C901D7
:101B500001C0880FBA94EAF7381AB484150D2A9494
:101B600001C0220F2A94EAF7A22EA11A2B2D4A2D8A
:101B7000632D82810E94BC07182FED81FE81828334
:101B80002B2D4A2D632D83810E94C907ED81FE8193
:101B90008383F1E0BF1609F493C0BF1608F450C068
:101BA00022E0B21609F492C033E0B31609F499C0EA
:101BB000082F212F49C0FC0184912B813C81280FE3
:101BC000311DFBCEF701EB58FF4F80819181EB81F6
:101BD000FC81E80FF91FFC83EB835F0160E0C50126
:101BE0000E945A082B813C81280F391F3C832B838C
:101BF00062E0C5010E945A0834E0A30EB11C8017B0
:101C0000910760F3EB81FC81849190E0982F882705
:101C10003196E4918E2B009709F4D8CE0817190756
:101C200021F48B819C81039634CFEB81FC81329629
:101C3000E4912B813C812E0F311D3C832B83E2CF1D
:101C4000202F210F082F050D482F612FC6010E945C
:101C50003906882309F4BBCEED81FE8114821582FA
:101C60005701F2E6AF0EB11C23E6E20EF11CF501BE
:101C700060818D819E810E942F08082FF70160816D
:101C80008D819E810E942F08182F40E0602FC60191
:101C90000E94D60741E0612FC6010E94D60761E08D
:101CA0008D819E810E942F088111EFCFED81FE81F1
:101CB00085818515E4F28285EB81FC81808387CE66
:101CC000B51821E0210F080F1B0DBECF91E0392F71
:101CD000301B21E0210F951901E0080F890F130F28
:101CE000B3CF212F250D982F901B01E0080F81E025
:101CF000890FAACFF4018081480E408276CEF3018D
:101D0000FACFF4018081841980836FCEF301FACF7A
:101D1000089590E080E00895CF93DF9300D000D045
:101D2000CDB7DEB785ED8093BC006091F601709170
:101D3000F7018091F8019091F9012AE030E040E04C
:101D400050E00E94521829833A834B835C83809130
:101D5000BC0084FD09C0109243020F900F900F90B9
:101D60000F90DF91CF9108958091F6019091F70146
:101D7000A091F801B091F901892B8A2B8B2B39F3B3
:101D800089819A81AB81BC81892B8A2B8B2B81F035
:101D900085E38A95F1F7000089819A81AB81BC8146
:101DA0000197A109B10989839A83AB83BC83CFCF03
:101DB0008091F5010F900F900F900F90DF91CF91D0
:101DC0000C945B03FC01A081B18150962C9182ADF3
:101DD00038E0839FC0011124289FA001299F500D46
:101DE000112470E060E080AD91AD0C9494181F92C6
:101DF0000F920FB60F9211242F933F938F939F93BF
:101E0000AF93BF9380916E0290916F02A091700288
:101E1000B09171023091690223E0230F2D3758F5FC
:101E20000196A11DB11D2093690280936E029093CB
:101E30006F02A0937002B093710280916A02909138
:101E40006B02A0916C02B0916D020196A11DB11DB3
:101E500080936A0290936B02A0936C02B0936D0220
:101E6000BF91AF919F918F913F912F910F900FBE96
:101E70000F901F90189526E8230F0296A11DB11D03
:101E8000D2CF1F920F920FB60F9211242F933F9330
:101E90004F935F936F937F938F939F93AF93BF9372
:101EA000EF93FF938091B900887F803609F44AC090
:101EB000F0F5883209F4A7C018F5803109F49BC009
:101EC000B8F4882309F4F9C0883009F494C0FF916C
:101ED000EF91BF91AF919F918F917F916F915F91A2
:101EE0004F913F912F910F900FBE0F901F9018951B
:101EF000883109F488C0803251F78093420214C0BF
:101F0000803409F49DC040F48033B9F38833F9F686
:101F10008093420285ECB0C0803509F485C08835D5
:101F200009F496C0883499F60E948C0ED0CF883977
:101F300009F48CC038F5883729F050F4883611F050
:101F4000803729F683E0809343021092410257C004
:101F5000883809F47BC0803919F0803809F0B7CF90
:101F600080914102803208F071C0E091410281E02D
:101F70008E0F809341028091BB00F0E0EF5DFD4F3A
:101F800080833DC0803B39F0E0F4803A09F479C0A9
:101F9000883A09F09CCF84E08093430210921E029D
:101FA00010921D02E0911B02F0911C020995809194
:101FB0001D0281110FC081E080931D021092FB0170
:101FC00009C0803C09F4A6CF883C09F4A3CF883B24
:101FD00009F07DCFE0911E0281E08E0F80931E02FA
:101FE000F0E0E550FE4F80818093BB0090911E028F
:101FF00080911D0229C0809168028093BB0085EC0E
:102000008093BC0064CF909167028091660298171C
:1020100058F5E091670281E08E0F80936702F0E04F
:10202000EA5BFD4F8081E9CFE091670281E08E0F8E
:10203000809367028091BB00F0E0EA5BFD4F8083F4
:1020400090916702809166029817C8F285E8D8CF10
:10205000E091670281E08E0F809367028091BB0060
:10206000F0E0EA5BFD4F80838091450281115CCFF7
:1020700081E08093440284EA8093BC001092430282
:1020800026CF85EC8093BC001092430280914102E0
:10209000803230F4E0914102F0E0EF5DFD4F1082BC
:1020A0006091410270E0E0911F02F091200281E214
:1020B00092E00995109241020ACF1092420234CF69
:1020C000CF93109265031092640388EE93E0A0E032
:1020D000B0E08093660390936703A0936803B09386
:1020E000690389E691E09093630380936203109201
:1020F0007107109270078BED91E09093EE0780933B
:10210000ED071092EF071092F00710928A078BE705
:1021100091E090936F0780936E071092730710926F
:1021200072071092870710927E0710927F07109215
:102130008007109281078FEF8093880780938C0728
:10214000E0E9F7E086EA97E0CFEFC1938E179F07AB
:10215000E1F78BE894E0909377078093760780E827
:1021600095E0909379078093780782EC98E09093BC
:102170007B0780937A0783E09AE090937D078093B2
:102180007C0730E020E040E069E082E797E00E94D1
:102190008B041092BE071092BD0785EE91E09093DC
:1021A000A7078093A6078EE693E09093AB078093F2
:1021B000AA0788E08093AC071092AD071092CA0777
:1021C0001092EA0781E08093EB078093EC0783E8A5
:1021D00091E09093A9078093A80782E797E00E9477
:1021E000F6051092B9071092BB07C093BA07C093C7
:1021F000BC07E091A807F091A9070280F381E02DC8
:1022000082E797E0099588E492E09093C007809375
:10221000BF071092CD07C0939B07C0939C07C09344
:102220009D07CF910895CF93DF93CDB7DEB7C65A00
:10223000D1090FB6F894DEBF0FBECDBF789484B538
:10224000826084BD84B5816084BD85B5826085BDB2
:1022500085B5816085BD80916E00816080936E0040
:102260001092810080918100826080938100809132
:1022700081008160809381008091800081608093E3
:1022800080008091B10084608093B1008091B000A3
:1022900081608093B00080917A00846080937A009E
:1022A00080917A00826080937A0080917A008160C8
:1022B00080937A0080917A00806880937A001092EF
:1022C000C100E0917607F091770730E020E040E030
:1022D0006AE082E797E009958091EC07882321F076
:1022E00082E797E00E94E20E80E00E944A0282E7C5
:1022F00097E00E9466081091AD078091AC07180F17
:10230000E0917207F09173078189181708F412C4DD
:1023100082E797E00E940B0480E00E944A02E0916D
:102320007607F091770730E020E040E06BE082E74D
:1023300097E009952FB7F89480916E0290916F0203
:10234000A0917002B09171022FBF809356039093B9
:102350005703A0935803B09359038BE090E0A0E09B
:10236000BFE38093720290937302A0937402B093C0
:1023700075028BE090E0A0E8BFE380938602909323
:102380008702A0938802B093890287E493E0A0E8D3
:10239000BFE380939A0290939B02A0939C02B09318
:1023A0009D028BE092EDACECBDEB8093AA02909382
:1023B000AB02A093AC02B093AD0280E090E0A0E845
:1023C000BFE380939E0290939F02A093A002B093DC
:1023D000A1021092AE021092AF021092B0021092BF
:1023E000B1020DE610E00C0F1D1F045F1F4F89E4C2
:1023F00090E08C0F9D1F0C96C356DF4F9983888306
:10240000CD59D04082E797E00E94E20E8FB7F89452
:10241000C0906E02D0906F02E0907002F090710256
:102420008FBFC0925E03D0925F03E0926003F09290
:10243000610320E030E040EB52E460915A03709178
:102440005B0380915C0390915D030E94C9156093CA
:102450005A0370935B0380935C0390935D038091B8
:10246000BD079091BE078059924009F495C0E0E9FC
:10247000F2E0F093BE07E093BD07E491E093CE074E
:10248000E1E9F2E0E491E093CF07E2E9F2E0E491E0
:10249000E093D007E3E9F2E0E491E093D107E4E9C7
:1024A000F2E0E491E093D207E5E9F2E0E491E09311
:1024B000D307E6E9F2E0E491E093D407E7E9F2E03C
:1024C000E491E093D507E8E9F2E0E491E093D607E0
:1024D000E9E9F2E0E491E093D707EAE9F2E0E49178
:1024E000E093D807EBE9F2E0E491E093D907ECE957
:1024F000F2E0E491E093DA07EDE9F2E0E491E093B1
:10250000DB07EEE9F2E0E491E093DC07EFE9F2E0CB
:10251000E491E093DD07E0EAF2E0E491E093DE0786
:1025200061E180E992E00E945A089093E00780936D
:10253000DF0763E180E992E00E945A089093E20786
:102540008093E10765E180E992E00E945A08909348
:10255000E4078093E3078091BD079091BE07892B24
:10256000D9F08091DB078093E7074091DC07409327
:10257000E8079091E607992379F0913009F0E4C2D9
:102580009091DD07891714F49093E7078091DE0797
:10259000841714F48093E8071092EF078FE080937C
:1025A000F0078091560390915703A0915803B09182
:1025B0005903A7019601281B390B4A0B5B0B68EEE8
:1025C00073E080E090E00E94521819A27E01B1E20F
:1025D000EB0EF11CCA01B9012AE030E040E050E006
:1025E0000E945218605DF70162937F012115310549
:1025F0004105510579F7309761F001900020E9F726
:102600003197AF014E195F09B7018EE697E00E943E
:10261000490C80915E0390915F03A0916003B0919B
:1026200061038093560390935703A0935803B0938C
:102630005903C0905A03D0905B03E0905C03F09084
:102640005D03C701B6010E943A164B015C018092FE
:10265000160390921703A0921803B0921903C701B2
:10266000B6010E94011860931A0370931B038093B4
:102670001C0390931D0390586093260370932703C7
:10268000809328039093290380922A0390922B032E
:10269000A0922C03B0922D0380E090E0A0E8BFE36D
:1026A00080933E0390933F03A0934003B093410374
:1026B0008093520390935303A0935403B093550314
:1026C0008093D6029093D702A093D802B093D902F8
:1026D00020E030E040E05FE3C701B6010E949417BC
:1026E0004B015C010E943A166B017C01C092EA0228
:1026F000D092EB02E092EC02F092ED02C501B4013F
:102700000E9401186093EE027093EF028093F00232
:102710009093F10290586093FA027093FB028093B9
:10272000FC029093FD02C092FE02D092FF02E09262
:102730000003F092010380E090E0A0E8BFE3809303
:10274000120390931303A0931403B093150380EE28
:10275000282E80E0382EADE6B0E0AC0FBD1F5896B5
:10276000C156DF4FB983A883CF59D040E9E4F0E0E8
:10277000EC0FFD1F7896CF55DF4FF983E883C15AE0
:10278000D04044E250E0B10182EB92E00E94BF15DC
:1027900046E153E0BE016B5D7F4F82EB92E00E9409
:1027A000B50A46E153E0BE016F5C7F4F8EEB92E0CD
:1027B0000E94B50A46E153E0BE01635C7F4F8AEC9C
:1027C00092E00E94B50A46ED52E0BE016F5F7F4F76
:1027D000CE0185960E94B50A46ED52E0BE01635FC8
:1027E0007F4FCE01C1960E94B50A46ED52E0BE0170
:1027F000675E7F4FCE01CD960E94B50A84E2FE014E
:102800003196DE01A75BBF4F01900D928A95E1F7EB
:1028100020E030E040E450E469857A858B859C8532
:102820000E94C91565966CAF7DAF8EAF9FAF65975F
:1028300020E030E040E450E46D897E898F89988DF6
:102840000E94C915A1966CAF7DAF8EAF9FAFA197C7
:1028500020E030E040E450E469A17AA18BA19CA182
:102860000E94C915AD966CAF7DAF8EAF9FAFAD978F
:1028700042E752E0BE0163597F4FCE01875B9F4F15
:102880000E94B50A42E752E0B801C356DF4F888183
:102890009981CD59D0400E94B50A42E752E0C15615
:1028A000DF4F68817981CF59D040CF55DF4F888184
:1028B0009981C15AD0400E94B50A20E030E040E83A
:1028C0005FE3E5966CAD7DAD8EAD9FADE5970E9463
:1028D000C9152B013C0120E030E040E85FE3ED96B4
:1028E0006CAD7DAD8EAD9FADED970E94C9154B01CE
:1028F0005C0120E030E040E85FE3C358DF4F6881CF
:1029000079818A819B81CD57D0400E94C9156B0186
:102910007C0120E030E040E85FE3CB57DF4F688187
:1029200079818A819B81C558D0400E94C915CF56B4
:10293000DF4F688379838A839B83C159D04020E02D
:1029400030E040E85FE3C757DF4F688179818A81D3
:102950009B81C958D0400E94C915CD55DF4F68836F
:1029600079838A839B83C35AD04020E030E040E8DB
:102970005FE3E1966CAD7DAD8EAD9FADE1970E94BA
:10298000C91520E030E040E852E40E949417CB568D
:10299000DF4F688379838A839B83C559D040E19652
:1029A0006CAF7DAF8EAF9FAFE19720E030E040E0AD
:1029B00052E4C301B2010E949417C756DF4F6883E7
:1029C00079838A839B83C959D040E5966CAF7DAFEC
:1029D0008EAF9FAFE59720E030E040E852E4C501BC
:1029E000B4010E9494174B015C01ED968CAE9DAE34
:1029F000AEAEBFAEED9720E030E040E052E4C7015C
:102A0000B6010E9494176B017C01C358DF4FC88246
:102A1000D982EA82FB82CD57D04020E030E040E806
:102A200052E4CF56DF4F688179818A819B81C159F9
:102A3000D0400E9494172B013C01CB57DF4F4882B6
:102A400059826A827B82C558D04020E030E040E065
:102A500052E4CD55DF4F688179818A819B81C35AC9
:102A6000D0400E949417C757DF4F688379838A83C9
:102A70009B83C958D0400E94B116CF56DF4F688360
:102A8000C159D040C301B2010E94B116762EC701D0
:102A9000B6010E94B116F62EC501B4010E94B1160E
:102AA000E62EC756DF4F688179818A819B81C9599B
:102AB000D0400E94B116D62ECB56DF4F6881798167
:102AC0008A819B81C559D0400E94B116C62E2F2DF8
:102AD0004E2D6D2D8C2D0E944F07CF56DF4F288134
:102AE000C159D040472D6F2D8E2D0E944F072D2D9F
:102AF0004C2DCF56DF4F6881C159D040872D0E94A1
:102B00004F07F4E22F0E311C80E992E08215930505
:102B100009F037CE82E797E00E94660882E797E0E7
:102B20000E940B0480E090E0892B09F46BCC0E949A
:102B3000000068CC8091EC07882321F082E797E0C1
:102B40000E94E20E812FD1CB3091D8072091DA0775
:102B5000082E000C990B622F022E000C770B630FCE
:102B6000711D37FD7A95861797071CF4320F309345
:102B7000E70724170CF010CD2093E8070DCDFB01DB
:102B8000DC0102C005900D9241505040D8F70895E5
:102B90005058BB27AA270E94E0150C9446170E94A4
:102BA0000D1738F00E94141720F039F49F3F19F4E4
:102BB00026F40C940A170EF4E095E7FB0C94041726
:102BC000E92F0E946B1758F3BA176207730784073F
:102BD000950720F079F4A6F50C948D170EF4E09586
:102BE0000B2EBA2FA02D0B01B90190010C01CA01C7
:102BF000A0011124FF27591B99F0593F50F4503E72
:102C000068F11A16F040A22F232F342F4427585F63
:102C1000F3CF469537952795A795F0405395C9F77B
:102C20007EF41F16BA0B620B730B840BBAF0915033
:102C3000A1F0FF0FBB1F661F771F881FC2F70EC0D2
:102C4000BA0F621F731F841F48F4879577956795A5
:102C5000B795F7959E3F08F0B0CF9395880F08F091
:102C60009927EE0F9795879508950E94E01608F42E
:102C700081E008950E941D17E3950C9457170E9458
:102C800053160C9446170E94141758F00E940D1703
:102C900040F029F45F3F29F00C94041751110C9473
:102CA0008E170C940A170E946B1768F39923B1F3DF
:102CB000552391F3951B550BBB27AA276217730762
:102CC000840738F09F5F5F4F220F331F441FAA1FF6
:102CD000A9F335D00E2E3AF0E0E832D091505040B2
:102CE000E695001CCAF72BD0FE2F29D0660F771F60
:102CF000881FBB1F261737074807AB07B0E809F046
:102D0000BB0B802DBF01FF2793585F4F3AF09E3FCA
:102D1000510578F00C9404170C948E175F3FE4F380
:102D2000983ED4F3869577956795B795F7959F5F0D
:102D3000C9F7880F911D9695879597F90895E1E059
:102D4000660F771F881FBB1F621773078407BA07B8
:102D500020F0621B730B840BBA0BEE1F88F7E09513
:102D600008950E94731788F09F5798F0B92F9927FC
:102D7000B751B0F0E1F0660F771F881F991F1AF066
:102D8000BA95C9F714C0B13091F00E948D17B1E027
:102D900008950C948D17672F782F8827B85F39F026
:102DA000B93FCCF3869577956795B395D9F73EF4FF
:102DB00090958095709561957F4F8F4F9F4F0895A7
:102DC000990F0008550FAA0BE0E8FEEF161617063C
:102DD000E807F907C0F012161306E407F50798F0A4
:102DE000621B730B840B950B39F40A2661F0232BBD
:102DF000242B252B21F408950A2609F4A140A69539
:102E00008FEF811D811D089597F99F6780E870E01D
:102E100060E008959FEF80EC089500240A94161650
:102E2000170618060906089500240A9412161306B8
:102E30001406050608950C940A170E947317D8F318
:102E4000E894E0E0BB279F57F0F02AED3FE049EC23
:102E500006C0EE0FBB0F661F771F881F28F0B23A1F
:102E600062077307840728F0B25A620B730B840B56
:102E7000E3959A9572F7803830F49A95BB0F661FE8
:102E8000771F881FD2F790480C940B18092E0394D3
:102E9000000C11F4882352F0BB0F40F4BF2B11F447
:102EA00060FF04C06F5F7F4F8F4F9F4F0895EF9378
:102EB000E0FF07C0A2EA2AED3FE049EC5FEB0E9489
:102EC000E0150E9446170F90039401FC9058E8E625
:102ED000F0E00C94171857FD9058440F551F59F007
:102EE0005F3F71F04795880F97FB991F61F09F3FF7
:102EF00079F087950895121613061406551FF2CF20
:102F00004695F1DF08C0161617061806991FF1CF6F
:102F100086957105610508940895E894BB27662796
:102F20007727CB0197F908950E94A7170C944617AD
:102F30000E940D1738F00E94141720F0952311F00D
:102F40000C9404170C940A1711240C948E170E94E9
:102F50006B1770F3959FC1F3950F50E0551F629F5B
:102F6000F001729FBB27F00DB11D639FAA27F00DE2
:102F7000B11DAA1F649F6627B00DA11D661F829F09
:102F80002227B00DA11D621F739FB00DA11D621FEE
:102F9000839FA00D611D221F749F3327A00D611D0B
:102FA000231F849F600D211D822F762F6A2F1124ED
:102FB0009F5750409AF0F1F088234AF0EE0FFF1F20
:102FC000BB1F661F771F881F91505040A9F79E3F77
:102FD000510580F00C9404170C948E175F3FE4F3B6
:102FE000983ED4F3869577956795B795F795E795CD
:102FF0009F5FC1F7FE2B880F911D9695879597F9D6
:1030000008959F930E941D170F9007FCEE5F0C948C
:1030100057179F3F31F0915020F48795779567952A
:10302000B795880F911D9695879597F908959F9369
:103030008F937F936F93FF93EF939B01AC010E945B
:103040009417EF91FF910E942B182F913F914F9170
:103050005F910C949417DF93CF931F930F93FF927C
:10306000EF92DF927B018C01689406C0DA2EEF01AB
:103070000E94A717FE01E894A591259135914591ED
:103080005591A6F3EF010E94E015FE019701A801FA
:10309000DA9469F7DF90EF90FF900F911F91CF9135
:1030A000DF910895A1E21A2EAA1BBB1BFD010DC0E2
:1030B000AA1FBB1FEE1FFF1FA217B307E407F507E8
:1030C00020F0A21BB30BE40BF50B661F771F881FC4
:1030D000991F1A9469F760957095809590959B015A
:1030E000AC01BD01CF0108950E948518A59F900DE8
:1030F000B49F900DA49F800D911D11240895EE0F93
:10310000FF1F0590F491E02D0994A29FB001B39F99
:10311000C001A39F700D811D1124911DB29F700DE0
:10312000811D1124911D0895DC0101C06D93415052
:0A3130005040E0F70895F894FFCF37
:10313A001815A015C019FF1815A115C819FF1815DB
:10314A00AE19FF1815AF19FF1815AE15D51680154B
:10315A00A8163F15D316001540158D1614152016FE
:10316A000015A115C815DA1612158116CF15D9162C
:10317A00F115DB1640152E15A415A619FF0001142A
:10318A000A6464323200127A000004289610080099
:10319A00008000400000000000D503A803890E7ECD
:1031AA0003A1038E037F0300000000710C490C8900
:0A31BA000E880EF6056006EA050017
:00000001FF
